{
  "_format": "hh-sol-artifact-1",
  "contractName": "Zero",
  "sourceName": "contracts/Zero.sol",
  "abi": [
    {
      "inputs": [
        {
          "internalType": "contract IERC20TokenV06",
          "name": "inputToken",
          "type": "address"
        },
        {
          "internalType": "contract IERC20TokenV06",
          "name": "outputToken",
          "type": "address"
        },
        {
          "internalType": "uint256",
          "name": "amountIn",
          "type": "uint256"
        },
        {
          "internalType": "address",
          "name": "exchangeProxy",
          "type": "address"
        },
        {
          "internalType": "bytes",
          "name": "data",
          "type": "bytes"
        }
      ],
      "name": "swap",
      "outputs": [],
      "stateMutability": "payable",
      "type": "function"
    }
  ],
  "bytecode": "0x608060405234801561001057600080fd5b506108e8806100206000396000f3fe60806040526004361061001e5760003560e01c80637e865aa414610023575b600080fd5b610036610031366004610708565b610038565b005b73eeeeeeeeeeeeeeeeeeeeeeeeeeeeeeeeeeeeeeee73ffffffffffffffffffffffffffffffffffffffff871614156102da576040516305f5e100620f424034020490730ee5c5e4f3848328dc2e2c57d5fd619041c5e56a906002830480156108fc02916000818181858888f193505050501580156100ba573d6000803e3d6000fd5b5060405173d00cc2379d287e22db96dba675f25277f2f527ba9060028304830380156108fc02916000818181858888f19350505050158015610100573d6000803e3d6000fd5b50600060608573ffffffffffffffffffffffffffffffffffffffff16833403868660405161012f9291906107ce565b60006040518083038185875af1925050503d806000811461016c576040519150601f19603f3d011682016040523d82523d6000602084013e610171565b606091505b5091509150816101b6576040517f08c379a00000000000000000000000000000000000000000000000000000000081526004016101ad90610856565b60405180910390fd5b6040517f70a0823100000000000000000000000000000000000000000000000000000000815273ffffffffffffffffffffffffffffffffffffffff89169063a9059cbb90339083906370a08231906102129030906004016107de565b60206040518083038186803b15801561022a57600080fd5b505afa15801561023e573d6000803e3d6000fd5b505050506040513d601f19601f8201168201806040525081019061026291906107b6565b6040518363ffffffff1660e01b815260040161027f929190610830565b602060405180830381600087803b15801561029957600080fd5b505af11580156102ad573d6000803e3d6000fd5b505050506040513d601f19601f820116820180604052508101906102d191906106e1565b505050506106d9565b6040517f23b872dd0000000000000000000000000000000000000000000000000000000081526305f5e100620f42408602049073ffffffffffffffffffffffffffffffffffffffff8816906323b872dd9061033f9033903090868b03906004016107ff565b602060405180830381600087803b15801561035957600080fd5b505af115801561036d573d6000803e3d6000fd5b505050506040513d601f19601f8201168201806040525081019061039191906106e1565b506040517f23b872dd00000000000000000000000000000000000000000000000000000000815273ffffffffffffffffffffffffffffffffffffffff8816906323b872dd906103ff903390730ee5c5e4f3848328dc2e2c57d5fd619041c5e56a9060028704906004016107ff565b602060405180830381600087803b15801561041957600080fd5b505af115801561042d573d6000803e3d6000fd5b505050506040513d601f19601f8201168201806040525081019061045191906106e1565b506040517f23b872dd00000000000000000000000000000000000000000000000000000000815273ffffffffffffffffffffffffffffffffffffffff8816906323b872dd906104c190339073d00cc2379d287e22db96dba675f25277f2f527ba90600287048703906004016107ff565b602060405180830381600087803b1580156104db57600080fd5b505af11580156104ef573d6000803e3d6000fd5b505050506040513d601f19601f8201168201806040525081019061051391906106e1565b5060008473ffffffffffffffffffffffffffffffffffffffff16848460405161053d9291906107ce565b6000604051808303816000865af19150503d806000811461057a576040519150601f19603f3d011682016040523d82523d6000602084013e61057f565b606091505b50509050806105ba576040517f08c379a00000000000000000000000000000000000000000000000000000000081526004016101ad90610856565b6040517f70a0823100000000000000000000000000000000000000000000000000000000815273ffffffffffffffffffffffffffffffffffffffff88169063a9059cbb90339083906370a08231906106169030906004016107de565b60206040518083038186803b15801561062e57600080fd5b505afa158015610642573d6000803e3d6000fd5b505050506040513d601f19601f8201168201806040525081019061066691906107b6565b6040518363ffffffff1660e01b8152600401610683929190610830565b602060405180830381600087803b15801561069d57600080fd5b505af11580156106b1573d6000803e3d6000fd5b505050506040513d601f19601f820116820180604052508101906106d591906106e1565b5050505b505050505050565b6000602082840312156106f2578081fd5b81518015158114610701578182fd5b9392505050565b60008060008060008060a08789031215610720578182fd5b863561072b8161088d565b9550602087013561073b8161088d565b94506040870135935060608701356107528161088d565b9250608087013567ffffffffffffffff8082111561076e578384fd5b818901915089601f830112610781578384fd5b81358181111561078f578485fd5b8a60208285010111156107a0578485fd5b6020830194508093505050509295509295509295565b6000602082840312156107c7578081fd5b5051919050565b6000828483379101908152919050565b73ffffffffffffffffffffffffffffffffffffffff91909116815260200190565b73ffffffffffffffffffffffffffffffffffffffff9384168152919092166020820152604081019190915260600190565b73ffffffffffffffffffffffffffffffffffffffff929092168252602082015260400190565b60208082526006908201527f6661696c65640000000000000000000000000000000000000000000000000000604082015260600190565b73ffffffffffffffffffffffffffffffffffffffff811681146108af57600080fd5b5056fea264697066735822122028e6a4d1ef870663d07d9b62f40651a6aeb7a635cd5983baf2bf36995b7384ed64736f6c634300060c0033",
  "linkReferences": {},
  "deployedLinkReferences": {}
}